{
  "contractName": "MyToken",
  "abi": [
    {
      "inputs": [
        {
          "internalType": "uint256",
          "name": "initialSupply",
          "type": "uint256"
        },
        {
          "internalType": "address",
          "name": "initialOwner",
          "type": "address"
        }
      ],
      "stateMutability": "nonpayable",
      "type": "constructor"
    },
    {
      "anonymous": false,
      "inputs": [
        {
          "indexed": true,
          "internalType": "address",
          "name": "owner",
          "type": "address"
        },
        {
          "indexed": true,
          "internalType": "address",
          "name": "spender",
          "type": "address"
        },
        {
          "indexed": false,
          "internalType": "uint256",
          "name": "value",
          "type": "uint256"
        }
      ],
      "name": "Approval",
      "type": "event"
    },
    {
      "anonymous": false,
      "inputs": [
        {
          "indexed": true,
          "internalType": "address",
          "name": "previousOwner",
          "type": "address"
        },
        {
          "indexed": true,
          "internalType": "address",
          "name": "newOwner",
          "type": "address"
        }
      ],
      "name": "OwnershipTransferred",
      "type": "event"
    },
    {
      "anonymous": false,
      "inputs": [
        {
          "indexed": true,
          "internalType": "address",
          "name": "from",
          "type": "address"
        },
        {
          "indexed": true,
          "internalType": "address",
          "name": "to",
          "type": "address"
        },
        {
          "indexed": false,
          "internalType": "uint256",
          "name": "value",
          "type": "uint256"
        }
      ],
      "name": "Transfer",
      "type": "event"
    },
    {
      "inputs": [],
      "name": "MINT_LIMIT",
      "outputs": [
        {
          "internalType": "uint256",
          "name": "",
          "type": "uint256"
        }
      ],
      "stateMutability": "view",
      "type": "function",
      "constant": true
    },
    {
      "inputs": [
        {
          "internalType": "address",
          "name": "owner",
          "type": "address"
        },
        {
          "internalType": "address",
          "name": "spender",
          "type": "address"
        }
      ],
      "name": "allowance",
      "outputs": [
        {
          "internalType": "uint256",
          "name": "",
          "type": "uint256"
        }
      ],
      "stateMutability": "view",
      "type": "function",
      "constant": true
    },
    {
      "inputs": [
        {
          "internalType": "address",
          "name": "spender",
          "type": "address"
        },
        {
          "internalType": "uint256",
          "name": "amount",
          "type": "uint256"
        }
      ],
      "name": "approve",
      "outputs": [
        {
          "internalType": "bool",
          "name": "",
          "type": "bool"
        }
      ],
      "stateMutability": "nonpayable",
      "type": "function"
    },
    {
      "inputs": [
        {
          "internalType": "address",
          "name": "spender",
          "type": "address"
        },
        {
          "internalType": "uint256",
          "name": "subtractedValue",
          "type": "uint256"
        }
      ],
      "name": "decreaseAllowance",
      "outputs": [
        {
          "internalType": "bool",
          "name": "",
          "type": "bool"
        }
      ],
      "stateMutability": "nonpayable",
      "type": "function"
    },
    {
      "inputs": [
        {
          "internalType": "address",
          "name": "spender",
          "type": "address"
        },
        {
          "internalType": "uint256",
          "name": "addedValue",
          "type": "uint256"
        }
      ],
      "name": "increaseAllowance",
      "outputs": [
        {
          "internalType": "bool",
          "name": "",
          "type": "bool"
        }
      ],
      "stateMutability": "nonpayable",
      "type": "function"
    },
    {
      "inputs": [],
      "name": "name",
      "outputs": [
        {
          "internalType": "string",
          "name": "",
          "type": "string"
        }
      ],
      "stateMutability": "view",
      "type": "function",
      "constant": true
    },
    {
      "inputs": [],
      "name": "owner",
      "outputs": [
        {
          "internalType": "address",
          "name": "",
          "type": "address"
        }
      ],
      "stateMutability": "view",
      "type": "function",
      "constant": true
    },
    {
      "inputs": [],
      "name": "renounceOwnership",
      "outputs": [],
      "stateMutability": "nonpayable",
      "type": "function"
    },
    {
      "inputs": [],
      "name": "symbol",
      "outputs": [
        {
          "internalType": "string",
          "name": "",
          "type": "string"
        }
      ],
      "stateMutability": "view",
      "type": "function",
      "constant": true
    },
    {
      "inputs": [],
      "name": "totalSupply",
      "outputs": [
        {
          "internalType": "uint256",
          "name": "",
          "type": "uint256"
        }
      ],
      "stateMutability": "view",
      "type": "function",
      "constant": true
    },
    {
      "inputs": [
        {
          "internalType": "address",
          "name": "to",
          "type": "address"
        },
        {
          "internalType": "uint256",
          "name": "amount",
          "type": "uint256"
        }
      ],
      "name": "transfer",
      "outputs": [
        {
          "internalType": "bool",
          "name": "",
          "type": "bool"
        }
      ],
      "stateMutability": "nonpayable",
      "type": "function"
    },
    {
      "inputs": [
        {
          "internalType": "address",
          "name": "from",
          "type": "address"
        },
        {
          "internalType": "address",
          "name": "to",
          "type": "address"
        },
        {
          "internalType": "uint256",
          "name": "amount",
          "type": "uint256"
        }
      ],
      "name": "transferFrom",
      "outputs": [
        {
          "internalType": "bool",
          "name": "",
          "type": "bool"
        }
      ],
      "stateMutability": "nonpayable",
      "type": "function"
    },
    {
      "inputs": [
        {
          "internalType": "address",
          "name": "newOwner",
          "type": "address"
        }
      ],
      "name": "transferOwnership",
      "outputs": [],
      "stateMutability": "nonpayable",
      "type": "function"
    },
    {
      "inputs": [],
      "name": "decimals",
      "outputs": [
        {
          "internalType": "uint8",
          "name": "",
          "type": "uint8"
        }
      ],
      "stateMutability": "view",
      "type": "function",
      "constant": true
    },
    {
      "inputs": [
        {
          "internalType": "address",
          "name": "to",
          "type": "address"
        },
        {
          "internalType": "int256",
          "name": "amount",
          "type": "int256"
        }
      ],
      "name": "mint",
      "outputs": [],
      "stateMutability": "nonpayable",
      "type": "function"
    },
    {
      "inputs": [
        {
          "internalType": "address",
          "name": "account",
          "type": "address"
        },
        {
          "internalType": "uint256",
          "name": "amount",
          "type": "uint256"
        }
      ],
      "name": "burnFrom",
      "outputs": [],
      "stateMutability": "nonpayable",
      "type": "function"
    },
    {
      "inputs": [
        {
          "internalType": "address",
          "name": "account",
          "type": "address"
        }
      ],
      "name": "balanceOf",
      "outputs": [
        {
          "internalType": "uint256",
          "name": "",
          "type": "uint256"
        }
      ],
      "stateMutability": "view",
      "type": "function",
      "constant": true
    }
  ],
  "bytecode": "0x60806040523480156200001157600080fd5b50604051620016ce380380620016ce833981016040819052620000349162000499565b6040518060400160405280600781526020017f4d79546f6b656e000000000000000000000000000000000000000000000000008152506040518060400160405280600381526020017f4d544b00000000000000000000000000000000000000000000000000000000008152508160039081620000b19190620005ae565b506004620000c08282620005ae565b505050620000ef620000e0620001bf640100000000026401000000009004565b640100000000620001c3810204565b683635c9adc5dea000008211156200018e576040517f08c379a000000000000000000000000000000000000000000000000000000000815260206004820152602160248201527f496e697469616c20737570706c792065786365656473206d696e74206c696d6960448201527f740000000000000000000000000000000000000000000000000000000000000060648201526084015b60405180910390fd5b620001a3818364010000000062000215810204565b620001b78164010000000062000320810204565b5050620006c2565b3390565b60058054600160a060020a03838116600160a060020a0319831681179093556040519116919082907f8be0079c531659141344cd1fd0a4f28419497f9722a3daafe3b4186f6b6457e090600090a35050565b600160a060020a03821662000287576040517f08c379a000000000000000000000000000000000000000000000000000000000815260206004820152601f60248201527f45524332303a206d696e7420746f20746865207a65726f206164647265737300604482015260640162000185565b6200029e60008383640100000000620003e2810204565b8060026000828254620002b2919062000681565b9091555050600160a060020a038216600081815260208181526040808320805486019055518481527fddf252ad1be2c89b69c2b068fc378daa952ba7f163c4a11628f55a4df523b3ef910160405180910390a36200031c60008383640100000000620003e2810204565b5050565b62000333640100000000620003e7810204565b600160a060020a038116620003cb576040517f08c379a000000000000000000000000000000000000000000000000000000000815260206004820152602660248201527f4f776e61626c653a206e6577206f776e657220697320746865207a65726f206160448201527f6464726573730000000000000000000000000000000000000000000000000000606482015260840162000185565b620003df81640100000000620001c3810204565b50565b505050565b620003fa640100000000620001bf810204565b600160a060020a0316620004166401000000006200048a810204565b600160a060020a03161462000488576040517f08c379a000000000000000000000000000000000000000000000000000000000815260206004820181905260248201527f4f776e61626c653a2063616c6c6572206973206e6f7420746865206f776e6572604482015260640162000185565b565b600554600160a060020a031690565b60008060408385031215620004ad57600080fd5b82516020840151909250600160a060020a0381168114620004cd57600080fd5b809150509250929050565b7f4e487b7100000000000000000000000000000000000000000000000000000000600052604160045260246000fd5b6002810460018216806200051c57607f821691505b60208210810362000556577f4e487b7100000000000000000000000000000000000000000000000000000000600052602260045260246000fd5b50919050565b601f821115620003e2576000818152602081206020601f86010481016020861015620005855750805b6020601f860104820191505b81811015620005a65782815560010162000591565b505050505050565b815167ffffffffffffffff811115620005cb57620005cb620004d8565b620005e381620005dc845462000507565b846200055c565b602080601f8311600181146200061f5760008415620006025750858301515b60028086026008870290910a6000190419821617865550620005a6565b600085815260208120601f198616915b8281101562000650578886015182559484019460019091019084016200062f565b50858210156200067157878501516008601f88160260020a60001904191681555b5050505050600202600101905550565b80820180821115620006bc577f4e487b7100000000000000000000000000000000000000000000000000000000600052601160045260246000fd5b92915050565b610ffc80620006d26000396000f3fe608060405234801561001057600080fd5b5060043610610128576000357c010000000000000000000000000000000000000000000000000000000090048063715018a6116100bf578063a457c2d71161008e578063a457c2d714610218578063a9059cbb1461022b578063dd62ed3e1461023e578063f2fde38b14610251578063fd9bf3aa1461026457600080fd5b8063715018a6146101d857806379cc6790146101e25780638da5cb5b146101f557806395d89b411461021057600080fd5b806323b872dd116100fb57806323b872dd14610190578063313ce567146101a357806339509351146101b257806370a08231146101c557600080fd5b8063027752401461012d57806306fdde0314610150578063095ea7b31461016557806318160ddd14610188575b600080fd5b61013d683635c9adc5dea0000081565b6040519081526020015b60405180910390f35b610158610277565b6040516101479190610dd4565b610178610173366004610e3e565b610309565b6040519015158152602001610147565b60025461013d565b61017861019e366004610e68565b610323565b60405160028152602001610147565b6101786101c0366004610e3e565b610347565b61013d6101d3366004610ea4565b610369565b6101e0610387565b005b6101e06101f0366004610e3e565b61039b565b600554604051600160a060020a039091168152602001610147565b610158610464565b610178610226366004610e3e565b610473565b610178610239366004610e3e565b610509565b61013d61024c366004610ec6565b610517565b6101e061025f366004610ea4565b610542565b6101e0610272366004610e3e565b6105d5565b60606003805461028690610ef9565b80601f01602080910402602001604051908101604052809291908181526020018280546102b290610ef9565b80156102ff5780601f106102d4576101008083540402835291602001916102ff565b820191906000526020600020905b8154815290600101906020018083116102e257829003601f168201915b5050505050905090565b600033610317818585610716565b60019150505b92915050565b600033610331858285610874565b61033c8585856108f1565b506001949350505050565b60003361031781858561035a8383610517565b6103649190610f7b565b610716565b600160a060020a03811660009081526020819052604081205461031d565b61038f610ae7565b6103996000610b44565b565b600160a060020a03821633146103fb5760405160e560020a62461bcd02815260206004820152601660248201527f4f6e6c792073656c662d6275726e20616c6c6f7765640000000000000000000060448201526064015b60405180910390fd5b8061040583610369565b10156104565760405160e560020a62461bcd02815260206004820152601160248201527f4e6f7420656e6f75676820746f6b656e7300000000000000000000000000000060448201526064016103f2565b6104608282610ba3565b5050565b60606004805461028690610ef9565b600033816104818286610517565b9050838110156104fc5760405160e560020a62461bcd02815260206004820152602560248201527f45524332303a2064656372656173656420616c6c6f77616e63652062656c6f7760448201527f207a65726f00000000000000000000000000000000000000000000000000000060648201526084016103f2565b61033c8286868403610716565b6000336103178185856108f1565b600160a060020a03918216600090815260016020908152604080832093909416825291909152205490565b61054a610ae7565b600160a060020a0381166105c95760405160e560020a62461bcd02815260206004820152602660248201527f4f776e61626c653a206e6577206f776e657220697320746865207a65726f206160448201527f646472657373000000000000000000000000000000000000000000000000000060648201526084016103f2565b6105d281610b44565b50565b6105dd610ae7565b806000036106305760405160e560020a62461bcd02815260206004820152601560248201527f416d6f756e742063616e6e6f74206265207a65726f000000000000000000000060448201526064016103f2565b600081131561069f57683635c9adc5dea000008111156106955760405160e560020a62461bcd02815260206004820152601360248201527f4d696e74206c696d69742065786365656465640000000000000000000000000060448201526064016103f2565b6104608282610d12565b60006106aa82610f8e565b9050806106b684610369565b10156107075760405160e560020a62461bcd02815260206004820152601b60248201527f496e73756666696369656e7420746f6b656e7320746f206275726e000000000060448201526064016103f2565b6107118382610ba3565b505050565b600160a060020a0383166107945760405160e560020a62461bcd028152602060048201526024808201527f45524332303a20617070726f76652066726f6d20746865207a65726f2061646460448201527f726573730000000000000000000000000000000000000000000000000000000060648201526084016103f2565b600160a060020a0382166108135760405160e560020a62461bcd02815260206004820152602260248201527f45524332303a20617070726f766520746f20746865207a65726f20616464726560448201527f737300000000000000000000000000000000000000000000000000000000000060648201526084016103f2565b600160a060020a0383811660008181526001602090815260408083209487168084529482529182902085905590518481527f8c5be1e5ebec7d5bd14f71427d1e84f3dd0314c0f7b2291e5b200ac8c7c3b925910160405180910390a3505050565b60006108808484610517565b905060001981146108eb57818110156108de5760405160e560020a62461bcd02815260206004820152601d60248201527f45524332303a20696e73756666696369656e7420616c6c6f77616e636500000060448201526064016103f2565b6108eb8484848403610716565b50505050565b600160a060020a0383166109705760405160e560020a62461bcd02815260206004820152602560248201527f45524332303a207472616e736665722066726f6d20746865207a65726f20616460448201527f647265737300000000000000000000000000000000000000000000000000000060648201526084016103f2565b600160a060020a0382166109ef5760405160e560020a62461bcd02815260206004820152602360248201527f45524332303a207472616e7366657220746f20746865207a65726f206164647260448201527f657373000000000000000000000000000000000000000000000000000000000060648201526084016103f2565b600160a060020a03831660009081526020819052604090205481811015610a815760405160e560020a62461bcd02815260206004820152602660248201527f45524332303a207472616e7366657220616d6f756e742065786365656473206260448201527f616c616e6365000000000000000000000000000000000000000000000000000060648201526084016103f2565b600160a060020a03848116600081815260208181526040808320878703905593871680835291849020805487019055925185815290927fddf252ad1be2c89b69c2b068fc378daa952ba7f163c4a11628f55a4df523b3ef910160405180910390a36108eb565b600554600160a060020a031633146103995760405160e560020a62461bcd02815260206004820181905260248201527f4f776e61626c653a2063616c6c6572206973206e6f7420746865206f776e657260448201526064016103f2565b60058054600160a060020a0383811673ffffffffffffffffffffffffffffffffffffffff19831681179093556040519116919082907f8be0079c531659141344cd1fd0a4f28419497f9722a3daafe3b4186f6b6457e090600090a35050565b600160a060020a038216610c225760405160e560020a62461bcd02815260206004820152602160248201527f45524332303a206275726e2066726f6d20746865207a65726f2061646472657360448201527f730000000000000000000000000000000000000000000000000000000000000060648201526084016103f2565b600160a060020a03821660009081526020819052604090205481811015610cb45760405160e560020a62461bcd02815260206004820152602260248201527f45524332303a206275726e20616d6f756e7420657863656564732062616c616e60448201527f636500000000000000000000000000000000000000000000000000000000000060648201526084016103f2565b600160a060020a0383166000818152602081815260408083208686039055600280548790039055518581529192917fddf252ad1be2c89b69c2b068fc378daa952ba7f163c4a11628f55a4df523b3ef910160405180910390a3505050565b600160a060020a038216610d6b5760405160e560020a62461bcd02815260206004820152601f60248201527f45524332303a206d696e7420746f20746865207a65726f20616464726573730060448201526064016103f2565b8060026000828254610d7d9190610f7b565b9091555050600160a060020a038216600081815260208181526040808320805486019055518481527fddf252ad1be2c89b69c2b068fc378daa952ba7f163c4a11628f55a4df523b3ef910160405180910390a35050565b600060208083528351808285015260005b81811015610e0157858101830151858201604001528201610de5565b506000604082860101526040601f19601f8301168501019250505092915050565b8035600160a060020a0381168114610e3957600080fd5b919050565b60008060408385031215610e5157600080fd5b610e5a83610e22565b946020939093013593505050565b600080600060608486031215610e7d57600080fd5b610e8684610e22565b9250610e9460208501610e22565b9150604084013590509250925092565b600060208284031215610eb657600080fd5b610ebf82610e22565b9392505050565b60008060408385031215610ed957600080fd5b610ee283610e22565b9150610ef060208401610e22565b90509250929050565b600281046001821680610f0d57607f821691505b602082108103610f46577f4e487b7100000000000000000000000000000000000000000000000000000000600052602260045260246000fd5b50919050565b7f4e487b7100000000000000000000000000000000000000000000000000000000600052601160045260246000fd5b8082018082111561031d5761031d610f4c565b60007f80000000000000000000000000000000000000000000000000000000000000008203610fbf57610fbf610f4c565b506000039056fea2646970667358221220ec7dd45a1c39260578fe11492e81075e3b05566c24a64ccce669718218c2769664736f6c63430008130033",
  "immutableReferences": {},
  "source": "// SPDX-License-Identifier: MIT\npragma solidity ^0.8.19;\n\nimport \"@openzeppelin/contracts/token/ERC20/ERC20.sol\";\nimport \"@openzeppelin/contracts/access/Ownable.sol\";\n\ncontract MyToken is ERC20, Ownable {\n    uint256 public constant MINT_LIMIT = 1000 * 10**18;\n\n    constructor(uint256 initialSupply, address initialOwner) ERC20(\"MyToken\", \"MTK\") {\n        require(initialSupply <= MINT_LIMIT, \"Initial supply exceeds mint limit\");\n        _mint(initialOwner, initialSupply);\n        transferOwnership(initialOwner); // Imposta il proprietario del contratto\n    }\n\n    function decimals() public view virtual override returns (uint8) {\n        return 2; // ad esempio: 2 decimali  1.23 token  rappresentato come 123\n    }\n\n    /// @notice Permette al proprietario di mintare o burnare token\n    /// @param to l'indirizzo destinatario\n    /// @param amount quantit da mintare (> 0) o burnare (< 0)\n    function mint(address to, int256 amount) external onlyOwner {\n        require(amount != 0, \"Amount cannot be zero\");\n\n        if (amount > 0) {\n            require(uint256(amount) <= MINT_LIMIT, \"Mint limit exceeded\");\n            _mint(to, uint256(amount));\n        } else {\n            uint256 absAmount = uint256(-amount);\n            require(balanceOf(to) >= absAmount, \"Insufficient tokens to burn\");\n            _burn(to, absAmount);\n        }\n    }\n\n    /// @notice Permette a chiunque di bruciare i propri token\n    /// @param amount quantit di token da bruciare\n    function burnFrom(address account, uint256 amount) external {\n        require(account == msg.sender, \"Only self-burn allowed\");\n        require(balanceOf(account) >= amount, \"Not enough tokens\");\n        _burn(account, amount);\n    }\n\n    /// @notice Versione esplicita di balanceOf (non strettamente necessaria)\n    function balanceOf(address account) public view override returns (uint256) {\n        return super.balanceOf(account);\n    }\n}",
  "sourcePath": "/Users/dani_d17/Documents/Software Security and Blockchain/Software-Food-Supply-Chain/onChain/contracts/MyToken.sol",
  "compiler": {
    "name": "solc",
    "version": "0.8.19+commit.7dd6d404.Emscripten.clang"
  },
  "schemaVersion": "3.4.16",
  "updatedAt": "2025-05-26T12:20:51.505Z",
  "networkType": "ethereum",
  "devdoc": {
    "events": {
      "Approval(address,address,uint256)": {
        "details": "Emitted when the allowance of a `spender` for an `owner` is set by a call to {approve}. `value` is the new allowance."
      },
      "Transfer(address,address,uint256)": {
        "details": "Emitted when `value` tokens are moved from one account (`from`) to another (`to`). Note that `value` may be zero."
      }
    },
    "kind": "dev",
    "methods": {
      "allowance(address,address)": {
        "details": "See {IERC20-allowance}."
      },
      "approve(address,uint256)": {
        "details": "See {IERC20-approve}. NOTE: If `amount` is the maximum `uint256`, the allowance is not updated on `transferFrom`. This is semantically equivalent to an infinite approval. Requirements: - `spender` cannot be the zero address."
      },
      "burnFrom(address,uint256)": {
        "params": {
          "amount": "quantit di token da bruciare"
        }
      },
      "decimals()": {
        "details": "Returns the number of decimals used to get its user representation. For example, if `decimals` equals `2`, a balance of `505` tokens should be displayed to a user as `5.05` (`505 / 10 ** 2`). Tokens usually opt for a value of 18, imitating the relationship between Ether and Wei. This is the value {ERC20} uses, unless this function is overridden; NOTE: This information is only used for _display_ purposes: it in no way affects any of the arithmetic of the contract, including {IERC20-balanceOf} and {IERC20-transfer}."
      },
      "decreaseAllowance(address,uint256)": {
        "details": "Atomically decreases the allowance granted to `spender` by the caller. This is an alternative to {approve} that can be used as a mitigation for problems described in {IERC20-approve}. Emits an {Approval} event indicating the updated allowance. Requirements: - `spender` cannot be the zero address. - `spender` must have allowance for the caller of at least `subtractedValue`."
      },
      "increaseAllowance(address,uint256)": {
        "details": "Atomically increases the allowance granted to `spender` by the caller. This is an alternative to {approve} that can be used as a mitigation for problems described in {IERC20-approve}. Emits an {Approval} event indicating the updated allowance. Requirements: - `spender` cannot be the zero address."
      },
      "mint(address,int256)": {
        "params": {
          "amount": "quantit da mintare (> 0) o burnare (< 0)",
          "to": "l'indirizzo destinatario"
        }
      },
      "name()": {
        "details": "Returns the name of the token."
      },
      "owner()": {
        "details": "Returns the address of the current owner."
      },
      "renounceOwnership()": {
        "details": "Leaves the contract without owner. It will not be possible to call `onlyOwner` functions anymore. Can only be called by the current owner. NOTE: Renouncing ownership will leave the contract without an owner, thereby removing any functionality that is only available to the owner."
      },
      "symbol()": {
        "details": "Returns the symbol of the token, usually a shorter version of the name."
      },
      "totalSupply()": {
        "details": "See {IERC20-totalSupply}."
      },
      "transfer(address,uint256)": {
        "details": "See {IERC20-transfer}. Requirements: - `to` cannot be the zero address. - the caller must have a balance of at least `amount`."
      },
      "transferFrom(address,address,uint256)": {
        "details": "See {IERC20-transferFrom}. Emits an {Approval} event indicating the updated allowance. This is not required by the EIP. See the note at the beginning of {ERC20}. NOTE: Does not update the allowance if the current allowance is the maximum `uint256`. Requirements: - `from` and `to` cannot be the zero address. - `from` must have a balance of at least `amount`. - the caller must have allowance for ``from``'s tokens of at least `amount`."
      },
      "transferOwnership(address)": {
        "details": "Transfers ownership of the contract to a new account (`newOwner`). Can only be called by the current owner."
      }
    },
    "version": 1
  },
  "userdoc": {
    "kind": "user",
    "methods": {
      "balanceOf(address)": {
        "notice": "Versione esplicita di balanceOf (non strettamente necessaria)"
      },
      "burnFrom(address,uint256)": {
        "notice": "Permette a chiunque di bruciare i propri token"
      },
      "mint(address,int256)": {
        "notice": "Permette al proprietario di mintare o burnare token"
      }
    },
    "version": 1
  }
}