{
  "contractName": "MyToken",
  "abi": [
    {
      "inputs": [
        {
          "internalType": "uint256",
          "name": "initialSupply",
          "type": "uint256"
        },
        {
          "internalType": "address",
          "name": "initialOwner",
          "type": "address"
        }
      ],
      "stateMutability": "nonpayable",
      "type": "constructor"
    },
    {
      "inputs": [
        {
          "internalType": "address",
          "name": "spender",
          "type": "address"
        },
        {
          "internalType": "uint256",
          "name": "allowance",
          "type": "uint256"
        },
        {
          "internalType": "uint256",
          "name": "needed",
          "type": "uint256"
        }
      ],
      "name": "ERC20InsufficientAllowance",
      "type": "error"
    },
    {
      "inputs": [
        {
          "internalType": "address",
          "name": "sender",
          "type": "address"
        },
        {
          "internalType": "uint256",
          "name": "balance",
          "type": "uint256"
        },
        {
          "internalType": "uint256",
          "name": "needed",
          "type": "uint256"
        }
      ],
      "name": "ERC20InsufficientBalance",
      "type": "error"
    },
    {
      "inputs": [
        {
          "internalType": "address",
          "name": "approver",
          "type": "address"
        }
      ],
      "name": "ERC20InvalidApprover",
      "type": "error"
    },
    {
      "inputs": [
        {
          "internalType": "address",
          "name": "receiver",
          "type": "address"
        }
      ],
      "name": "ERC20InvalidReceiver",
      "type": "error"
    },
    {
      "inputs": [
        {
          "internalType": "address",
          "name": "sender",
          "type": "address"
        }
      ],
      "name": "ERC20InvalidSender",
      "type": "error"
    },
    {
      "inputs": [
        {
          "internalType": "address",
          "name": "spender",
          "type": "address"
        }
      ],
      "name": "ERC20InvalidSpender",
      "type": "error"
    },
    {
      "inputs": [
        {
          "internalType": "address",
          "name": "owner",
          "type": "address"
        }
      ],
      "name": "OwnableInvalidOwner",
      "type": "error"
    },
    {
      "inputs": [
        {
          "internalType": "address",
          "name": "account",
          "type": "address"
        }
      ],
      "name": "OwnableUnauthorizedAccount",
      "type": "error"
    },
    {
      "anonymous": false,
      "inputs": [
        {
          "indexed": true,
          "internalType": "address",
          "name": "owner",
          "type": "address"
        },
        {
          "indexed": true,
          "internalType": "address",
          "name": "spender",
          "type": "address"
        },
        {
          "indexed": false,
          "internalType": "uint256",
          "name": "value",
          "type": "uint256"
        }
      ],
      "name": "Approval",
      "type": "event"
    },
    {
      "anonymous": false,
      "inputs": [
        {
          "indexed": true,
          "internalType": "address",
          "name": "previousOwner",
          "type": "address"
        },
        {
          "indexed": true,
          "internalType": "address",
          "name": "newOwner",
          "type": "address"
        }
      ],
      "name": "OwnershipTransferred",
      "type": "event"
    },
    {
      "anonymous": false,
      "inputs": [
        {
          "indexed": true,
          "internalType": "address",
          "name": "from",
          "type": "address"
        },
        {
          "indexed": true,
          "internalType": "address",
          "name": "to",
          "type": "address"
        },
        {
          "indexed": false,
          "internalType": "uint256",
          "name": "value",
          "type": "uint256"
        }
      ],
      "name": "Transfer",
      "type": "event"
    },
    {
      "inputs": [],
      "name": "MINT_LIMIT",
      "outputs": [
        {
          "internalType": "uint256",
          "name": "",
          "type": "uint256"
        }
      ],
      "stateMutability": "view",
      "type": "function",
      "constant": true
    },
    {
      "inputs": [
        {
          "internalType": "address",
          "name": "owner",
          "type": "address"
        },
        {
          "internalType": "address",
          "name": "spender",
          "type": "address"
        }
      ],
      "name": "allowance",
      "outputs": [
        {
          "internalType": "uint256",
          "name": "",
          "type": "uint256"
        }
      ],
      "stateMutability": "view",
      "type": "function",
      "constant": true
    },
    {
      "inputs": [
        {
          "internalType": "address",
          "name": "spender",
          "type": "address"
        },
        {
          "internalType": "uint256",
          "name": "value",
          "type": "uint256"
        }
      ],
      "name": "approve",
      "outputs": [
        {
          "internalType": "bool",
          "name": "",
          "type": "bool"
        }
      ],
      "stateMutability": "nonpayable",
      "type": "function"
    },
    {
      "inputs": [
        {
          "internalType": "address",
          "name": "account",
          "type": "address"
        }
      ],
      "name": "balanceOf",
      "outputs": [
        {
          "internalType": "uint256",
          "name": "",
          "type": "uint256"
        }
      ],
      "stateMutability": "view",
      "type": "function",
      "constant": true
    },
    {
      "inputs": [],
      "name": "decimals",
      "outputs": [
        {
          "internalType": "uint8",
          "name": "",
          "type": "uint8"
        }
      ],
      "stateMutability": "view",
      "type": "function",
      "constant": true
    },
    {
      "inputs": [],
      "name": "name",
      "outputs": [
        {
          "internalType": "string",
          "name": "",
          "type": "string"
        }
      ],
      "stateMutability": "view",
      "type": "function",
      "constant": true
    },
    {
      "inputs": [],
      "name": "owner",
      "outputs": [
        {
          "internalType": "address",
          "name": "",
          "type": "address"
        }
      ],
      "stateMutability": "view",
      "type": "function",
      "constant": true
    },
    {
      "inputs": [],
      "name": "renounceOwnership",
      "outputs": [],
      "stateMutability": "nonpayable",
      "type": "function"
    },
    {
      "inputs": [],
      "name": "symbol",
      "outputs": [
        {
          "internalType": "string",
          "name": "",
          "type": "string"
        }
      ],
      "stateMutability": "view",
      "type": "function",
      "constant": true
    },
    {
      "inputs": [],
      "name": "totalSupply",
      "outputs": [
        {
          "internalType": "uint256",
          "name": "",
          "type": "uint256"
        }
      ],
      "stateMutability": "view",
      "type": "function",
      "constant": true
    },
    {
      "inputs": [
        {
          "internalType": "address",
          "name": "to",
          "type": "address"
        },
        {
          "internalType": "uint256",
          "name": "value",
          "type": "uint256"
        }
      ],
      "name": "transfer",
      "outputs": [
        {
          "internalType": "bool",
          "name": "",
          "type": "bool"
        }
      ],
      "stateMutability": "nonpayable",
      "type": "function"
    },
    {
      "inputs": [
        {
          "internalType": "address",
          "name": "from",
          "type": "address"
        },
        {
          "internalType": "address",
          "name": "to",
          "type": "address"
        },
        {
          "internalType": "uint256",
          "name": "value",
          "type": "uint256"
        }
      ],
      "name": "transferFrom",
      "outputs": [
        {
          "internalType": "bool",
          "name": "",
          "type": "bool"
        }
      ],
      "stateMutability": "nonpayable",
      "type": "function"
    },
    {
      "inputs": [
        {
          "internalType": "address",
          "name": "newOwner",
          "type": "address"
        }
      ],
      "name": "transferOwnership",
      "outputs": [],
      "stateMutability": "nonpayable",
      "type": "function"
    },
    {
      "inputs": [
        {
          "internalType": "address",
          "name": "to",
          "type": "address"
        },
        {
          "internalType": "int256",
          "name": "amount",
          "type": "int256"
        }
      ],
      "name": "mint",
      "outputs": [],
      "stateMutability": "nonpayable",
      "type": "function"
    }
  ],
  "bytecode": "0x60806040523480156200001157600080fd5b5060405162001253380380620012538339810160408190526200003491620003d8565b806040518060400160405280600781526020017f4d79546f6b656e000000000000000000000000000000000000000000000000008152506040518060400160405280600381526020017f4d544b00000000000000000000000000000000000000000000000000000000008152508160039081620000b29190620004ee565b506004620000c18282620004ee565b505050600160a060020a0381166200010d576040517f1e4fbdf7000000000000000000000000000000000000000000000000000000008152600060048201526024015b60405180910390fd5b6200012181640100000000620001da810204565b50683635c9adc5dea00000821115620001bd576040517f08c379a000000000000000000000000000000000000000000000000000000000815260206004820152602160248201527f496e697469616c20737570706c792065786365656473206d696e74206c696d6960448201527f7400000000000000000000000000000000000000000000000000000000000000606482015260840162000104565b620001d281836401000000006200022c810204565b505062000602565b60058054600160a060020a03838116600160a060020a0319831681179093556040519116919082907f8be0079c531659141344cd1fd0a4f28419497f9722a3daafe3b4186f6b6457e090600090a35050565b600160a060020a03821662000271576040517fec442f050000000000000000000000000000000000000000000000000000000081526000600482015260240162000104565b62000288600083836401000000006200028c810204565b5050565b600160a060020a038316620002bb578060026000828254620002af9190620005c1565b90915550620003489050565b600160a060020a0383166000908152602081905260409020548181101562000329576040517fe450d38c000000000000000000000000000000000000000000000000000000008152600160a060020a0385166004820152602481018290526044810183905260640162000104565b600160a060020a03841660009081526020819052604090209082900390555b600160a060020a038216620003665760028054829003905562000385565b600160a060020a03821660009081526020819052604090208054820190555b81600160a060020a031683600160a060020a03167fddf252ad1be2c89b69c2b068fc378daa952ba7f163c4a11628f55a4df523b3ef83604051620003cb91815260200190565b60405180910390a3505050565b60008060408385031215620003ec57600080fd5b82516020840151909250600160a060020a03811681146200040c57600080fd5b809150509250929050565b7f4e487b7100000000000000000000000000000000000000000000000000000000600052604160045260246000fd5b6002810460018216806200045b57607f821691505b60208210810362000495577f4e487b7100000000000000000000000000000000000000000000000000000000600052602260045260246000fd5b50919050565b601f821115620004e9576000818152602081206020601f86010481016020861015620004c45750805b6020601f860104820191505b81811015620004e557828155600101620004d0565b5050505b505050565b815167ffffffffffffffff8111156200050b576200050b62000417565b62000523816200051c845462000446565b846200049b565b602080601f8311600181146200055f5760008415620005425750858301515b60028086026008870290910a6000190419821617865550620004e5565b600085815260208120601f198616915b8281101562000590578886015182559484019460019091019084016200056f565b5085821015620005b157878501516008601f88160260020a60001904191681555b5050505050600202600101905550565b80820180821115620005fc577f4e487b7100000000000000000000000000000000000000000000000000000000600052601160045260246000fd5b92915050565b610c4180620006126000396000f3fe608060405234801561001057600080fd5b5060043610610107576000357c010000000000000000000000000000000000000000000000000000000090048063715018a6116100a9578063a9059cbb11610083578063a9059cbb146101e7578063dd62ed3e146101fa578063f2fde38b14610233578063fd9bf3aa1461024657600080fd5b8063715018a6146101ba5780638da5cb5b146101c457806395d89b41146101df57600080fd5b806318160ddd116100e557806318160ddd1461016757806323b872dd1461016f578063313ce5671461018257806370a082311461019157600080fd5b8063027752401461010c57806306fdde031461012f578063095ea7b314610144575b600080fd5b61011c683635c9adc5dea0000081565b6040519081526020015b60405180910390f35b610137610259565b6040516101269190610a19565b610157610152366004610a83565b6102eb565b6040519015158152602001610126565b60025461011c565b61015761017d366004610aad565b610305565b60405160128152602001610126565b61011c61019f366004610ae9565b600160a060020a031660009081526020819052604090205490565b6101c2610329565b005b600554604051600160a060020a039091168152602001610126565b61013761033d565b6101576101f5366004610a83565b61034c565b61011c610208366004610b0b565b600160a060020a03918216600090815260016020908152604080832093909416825291909152205490565b6101c2610241366004610ae9565b61035a565b6101c2610254366004610a83565b6103b6565b60606003805461026890610b3e565b80601f016020809104026020016040519081016040528092919081815260200182805461029490610b3e565b80156102e15780601f106102b6576101008083540402835291602001916102e1565b820191906000526020600020905b8154815290600101906020018083116102c457829003601f168201915b5050505050905090565b6000336102f9818585610556565b60019150505b92915050565b600033610313858285610563565b61031e8585856105fb565b506001949350505050565b61033161068c565b61033b60006106d2565b565b60606004805461026890610b3e565b6000336102f98185856105fb565b61036261068c565b600160a060020a0381166103aa576040517f1e4fbdf7000000000000000000000000000000000000000000000000000000008152600060048201526024015b60405180910390fd5b6103b3816106d2565b50565b6103be61068c565b80600003610428576040517f08c379a000000000000000000000000000000000000000000000000000000000815260206004820152601560248201527f416d6f756e742063616e6e6f74206265207a65726f000000000000000000000060448201526064016103a1565b60008113156104b257683635c9adc5dea000008111156104a4576040517f08c379a000000000000000000000000000000000000000000000000000000000815260206004820152601360248201527f4d696e74206c696d69742065786365656465640000000000000000000000000060448201526064016103a1565b6104ae8282610731565b5050565b60006104bd82610bc0565b9050806104df84600160a060020a031660009081526020819052604090205490565b1015610547576040517f08c379a000000000000000000000000000000000000000000000000000000000815260206004820152601b60248201527f496e73756666696369656e7420746f6b656e7320746f206275726e000000000060448201526064016103a1565b6105518382610780565b505050565b61055183838360016107cf565b600160a060020a038381166000908152600160209081526040808320938616835292905220546000198110156105f557818110156105e6576040517ffb8f41b2000000000000000000000000000000000000000000000000000000008152600160a060020a038416600482015260248101829052604481018390526064016103a1565b6105f5848484840360006107cf565b50505050565b600160a060020a03831661063e576040517f96c6fd1e000000000000000000000000000000000000000000000000000000008152600060048201526024016103a1565b600160a060020a038216610681576040517fec442f05000000000000000000000000000000000000000000000000000000008152600060048201526024016103a1565b6105518383836108d6565b600554600160a060020a0316331461033b576040517f118cdaa70000000000000000000000000000000000000000000000000000000081523360048201526024016103a1565b60058054600160a060020a0383811673ffffffffffffffffffffffffffffffffffffffff19831681179093556040519116919082907f8be0079c531659141344cd1fd0a4f28419497f9722a3daafe3b4186f6b6457e090600090a35050565b600160a060020a038216610774576040517fec442f05000000000000000000000000000000000000000000000000000000008152600060048201526024016103a1565b6104ae600083836108d6565b600160a060020a0382166107c3576040517f96c6fd1e000000000000000000000000000000000000000000000000000000008152600060048201526024016103a1565b6104ae826000836108d6565b600160a060020a038416610812576040517fe602df05000000000000000000000000000000000000000000000000000000008152600060048201526024016103a1565b600160a060020a038316610855576040517f94280d62000000000000000000000000000000000000000000000000000000008152600060048201526024016103a1565b600160a060020a03808516600090815260016020908152604080832093871683529290522082905580156105f55782600160a060020a031684600160a060020a03167f8c5be1e5ebec7d5bd14f71427d1e84f3dd0314c0f7b2291e5b200ac8c7c3b925846040516108c891815260200190565b60405180910390a350505050565b600160a060020a0383166109015780600260008282546108f69190610bf8565b9091555061098c9050565b600160a060020a0383166000908152602081905260409020548181101561096d576040517fe450d38c000000000000000000000000000000000000000000000000000000008152600160a060020a038516600482015260248101829052604481018390526064016103a1565b600160a060020a03841660009081526020819052604090209082900390555b600160a060020a0382166109a8576002805482900390556109c7565b600160a060020a03821660009081526020819052604090208054820190555b81600160a060020a031683600160a060020a03167fddf252ad1be2c89b69c2b068fc378daa952ba7f163c4a11628f55a4df523b3ef83604051610a0c91815260200190565b60405180910390a3505050565b600060208083528351808285015260005b81811015610a4657858101830151858201604001528201610a2a565b506000604082860101526040601f19601f8301168501019250505092915050565b8035600160a060020a0381168114610a7e57600080fd5b919050565b60008060408385031215610a9657600080fd5b610a9f83610a67565b946020939093013593505050565b600080600060608486031215610ac257600080fd5b610acb84610a67565b9250610ad960208501610a67565b9150604084013590509250925092565b600060208284031215610afb57600080fd5b610b0482610a67565b9392505050565b60008060408385031215610b1e57600080fd5b610b2783610a67565b9150610b3560208401610a67565b90509250929050565b600281046001821680610b5257607f821691505b602082108103610b8b577f4e487b7100000000000000000000000000000000000000000000000000000000600052602260045260246000fd5b50919050565b7f4e487b7100000000000000000000000000000000000000000000000000000000600052601160045260246000fd5b60007f80000000000000000000000000000000000000000000000000000000000000008203610bf157610bf1610b91565b5060000390565b808201808211156102ff576102ff610b9156fea264697066735822122076dfe76389ae4b78e6696f47aff0ef0379360ebd4bdc0d0879e5383df85b098764736f6c63430008140033",
  "immutableReferences": {},
  "source": "// SPDX-License-Identifier: MIT\npragma solidity >=0.4.22 <0.9.0;\n\nimport \"@openzeppelin/contracts/token/ERC20/ERC20.sol\";\nimport \"@openzeppelin/contracts/access/Ownable.sol\";\n\ncontract MyToken is ERC20, Ownable {\n    uint256 public constant MINT_LIMIT = 1000 * 10**18; // Limite massimo per ogni mint\n\n    constructor(uint256 initialSupply, address initialOwner) ERC20(\"MyToken\", \"MTK\") Ownable(initialOwner) {\n        require(initialSupply <= MINT_LIMIT, \"Initial supply exceeds mint limit\");\n        _mint(initialOwner, initialSupply); // Usa initialOwner per il mint iniziale\n    }\n\n    function mint(address to, int256 amount) external onlyOwner {\n        require(amount != 0, \"Amount cannot be zero\");\n\n        if (amount > 0) {\n            require(uint256(amount) <= MINT_LIMIT, \"Mint limit exceeded\");\n            _mint(to, uint256(amount));\n        } else {\n            uint256 absAmount = uint256(-amount);\n            require(balanceOf(to) >= absAmount, \"Insufficient tokens to burn\");\n            _burn(to, absAmount);\n        }\n    }\n}",
  "sourcePath": "/Users/dani_d17/Documents/Software Security and Blockchain/Software-Food-Supply-Chain/onChain/contracts/MyToken.sol",
  "compiler": {
    "name": "solc",
    "version": "0.8.20+commit.a1b79de6.Emscripten.clang"
  },
  "schemaVersion": "3.4.16",
  "updatedAt": "2025-03-14T08:46:46.751Z",
  "networkType": "ethereum",
  "devdoc": {
    "errors": {
      "ERC20InsufficientAllowance(address,uint256,uint256)": [
        {
          "details": "Indicates a failure with the `spender`s `allowance`. Used in transfers.",
          "params": {
            "allowance": "Amount of tokens a `spender` is allowed to operate with.",
            "needed": "Minimum amount required to perform a transfer.",
            "spender": "Address that may be allowed to operate on tokens without being their owner."
          }
        }
      ],
      "ERC20InsufficientBalance(address,uint256,uint256)": [
        {
          "details": "Indicates an error related to the current `balance` of a `sender`. Used in transfers.",
          "params": {
            "balance": "Current balance for the interacting account.",
            "needed": "Minimum amount required to perform a transfer.",
            "sender": "Address whose tokens are being transferred."
          }
        }
      ],
      "ERC20InvalidApprover(address)": [
        {
          "details": "Indicates a failure with the `approver` of a token to be approved. Used in approvals.",
          "params": {
            "approver": "Address initiating an approval operation."
          }
        }
      ],
      "ERC20InvalidReceiver(address)": [
        {
          "details": "Indicates a failure with the token `receiver`. Used in transfers.",
          "params": {
            "receiver": "Address to which tokens are being transferred."
          }
        }
      ],
      "ERC20InvalidSender(address)": [
        {
          "details": "Indicates a failure with the token `sender`. Used in transfers.",
          "params": {
            "sender": "Address whose tokens are being transferred."
          }
        }
      ],
      "ERC20InvalidSpender(address)": [
        {
          "details": "Indicates a failure with the `spender` to be approved. Used in approvals.",
          "params": {
            "spender": "Address that may be allowed to operate on tokens without being their owner."
          }
        }
      ],
      "OwnableInvalidOwner(address)": [
        {
          "details": "The owner is not a valid owner account. (eg. `address(0)`)"
        }
      ],
      "OwnableUnauthorizedAccount(address)": [
        {
          "details": "The caller account is not authorized to perform an operation."
        }
      ]
    },
    "events": {
      "Approval(address,address,uint256)": {
        "details": "Emitted when the allowance of a `spender` for an `owner` is set by a call to {approve}. `value` is the new allowance."
      },
      "Transfer(address,address,uint256)": {
        "details": "Emitted when `value` tokens are moved from one account (`from`) to another (`to`). Note that `value` may be zero."
      }
    },
    "kind": "dev",
    "methods": {
      "allowance(address,address)": {
        "details": "See {IERC20-allowance}."
      },
      "approve(address,uint256)": {
        "details": "See {IERC20-approve}. NOTE: If `value` is the maximum `uint256`, the allowance is not updated on `transferFrom`. This is semantically equivalent to an infinite approval. Requirements: - `spender` cannot be the zero address."
      },
      "balanceOf(address)": {
        "details": "See {IERC20-balanceOf}."
      },
      "decimals()": {
        "details": "Returns the number of decimals used to get its user representation. For example, if `decimals` equals `2`, a balance of `505` tokens should be displayed to a user as `5.05` (`505 / 10 ** 2`). Tokens usually opt for a value of 18, imitating the relationship between Ether and Wei. This is the default value returned by this function, unless it's overridden. NOTE: This information is only used for _display_ purposes: it in no way affects any of the arithmetic of the contract, including {IERC20-balanceOf} and {IERC20-transfer}."
      },
      "name()": {
        "details": "Returns the name of the token."
      },
      "owner()": {
        "details": "Returns the address of the current owner."
      },
      "renounceOwnership()": {
        "details": "Leaves the contract without owner. It will not be possible to call `onlyOwner` functions. Can only be called by the current owner. NOTE: Renouncing ownership will leave the contract without an owner, thereby disabling any functionality that is only available to the owner."
      },
      "symbol()": {
        "details": "Returns the symbol of the token, usually a shorter version of the name."
      },
      "totalSupply()": {
        "details": "See {IERC20-totalSupply}."
      },
      "transfer(address,uint256)": {
        "details": "See {IERC20-transfer}. Requirements: - `to` cannot be the zero address. - the caller must have a balance of at least `value`."
      },
      "transferFrom(address,address,uint256)": {
        "details": "See {IERC20-transferFrom}. Skips emitting an {Approval} event indicating an allowance update. This is not required by the ERC. See {xref-ERC20-_approve-address-address-uint256-bool-}[_approve]. NOTE: Does not update the allowance if the current allowance is the maximum `uint256`. Requirements: - `from` and `to` cannot be the zero address. - `from` must have a balance of at least `value`. - the caller must have allowance for ``from``'s tokens of at least `value`."
      },
      "transferOwnership(address)": {
        "details": "Transfers ownership of the contract to a new account (`newOwner`). Can only be called by the current owner."
      }
    },
    "version": 1
  },
  "userdoc": {
    "kind": "user",
    "methods": {},
    "version": 1
  }
}