{
  "contractName": "SupplyChainNFT",
  "abi": [
    {
      "inputs": [],
      "stateMutability": "nonpayable",
      "type": "constructor"
    },
    {
      "anonymous": false,
      "inputs": [
        {
          "indexed": true,
          "internalType": "address",
          "name": "owner",
          "type": "address"
        },
        {
          "indexed": true,
          "internalType": "address",
          "name": "approved",
          "type": "address"
        },
        {
          "indexed": true,
          "internalType": "uint256",
          "name": "tokenId",
          "type": "uint256"
        }
      ],
      "name": "Approval",
      "type": "event"
    },
    {
      "anonymous": false,
      "inputs": [
        {
          "indexed": true,
          "internalType": "address",
          "name": "owner",
          "type": "address"
        },
        {
          "indexed": true,
          "internalType": "address",
          "name": "operator",
          "type": "address"
        },
        {
          "indexed": false,
          "internalType": "bool",
          "name": "approved",
          "type": "bool"
        }
      ],
      "name": "ApprovalForAll",
      "type": "event"
    },
    {
      "anonymous": false,
      "inputs": [
        {
          "indexed": true,
          "internalType": "address",
          "name": "previousOwner",
          "type": "address"
        },
        {
          "indexed": true,
          "internalType": "address",
          "name": "newOwner",
          "type": "address"
        }
      ],
      "name": "OwnershipTransferred",
      "type": "event"
    },
    {
      "anonymous": false,
      "inputs": [
        {
          "indexed": true,
          "internalType": "address",
          "name": "from",
          "type": "address"
        },
        {
          "indexed": true,
          "internalType": "address",
          "name": "to",
          "type": "address"
        },
        {
          "indexed": true,
          "internalType": "uint256",
          "name": "tokenId",
          "type": "uint256"
        }
      ],
      "name": "Transfer",
      "type": "event"
    },
    {
      "inputs": [
        {
          "internalType": "address",
          "name": "to",
          "type": "address"
        },
        {
          "internalType": "uint256",
          "name": "tokenId",
          "type": "uint256"
        }
      ],
      "name": "approve",
      "outputs": [],
      "stateMutability": "nonpayable",
      "type": "function"
    },
    {
      "inputs": [
        {
          "internalType": "address",
          "name": "owner",
          "type": "address"
        }
      ],
      "name": "balanceOf",
      "outputs": [
        {
          "internalType": "uint256",
          "name": "",
          "type": "uint256"
        }
      ],
      "stateMutability": "view",
      "type": "function",
      "constant": true
    },
    {
      "inputs": [
        {
          "internalType": "uint256",
          "name": "tokenId",
          "type": "uint256"
        }
      ],
      "name": "getApproved",
      "outputs": [
        {
          "internalType": "address",
          "name": "",
          "type": "address"
        }
      ],
      "stateMutability": "view",
      "type": "function",
      "constant": true
    },
    {
      "inputs": [
        {
          "internalType": "address",
          "name": "owner",
          "type": "address"
        },
        {
          "internalType": "address",
          "name": "operator",
          "type": "address"
        }
      ],
      "name": "isApprovedForAll",
      "outputs": [
        {
          "internalType": "bool",
          "name": "",
          "type": "bool"
        }
      ],
      "stateMutability": "view",
      "type": "function",
      "constant": true
    },
    {
      "inputs": [],
      "name": "name",
      "outputs": [
        {
          "internalType": "string",
          "name": "",
          "type": "string"
        }
      ],
      "stateMutability": "view",
      "type": "function",
      "constant": true
    },
    {
      "inputs": [],
      "name": "nextTokenId",
      "outputs": [
        {
          "internalType": "uint256",
          "name": "",
          "type": "uint256"
        }
      ],
      "stateMutability": "view",
      "type": "function",
      "constant": true
    },
    {
      "inputs": [],
      "name": "owner",
      "outputs": [
        {
          "internalType": "address",
          "name": "",
          "type": "address"
        }
      ],
      "stateMutability": "view",
      "type": "function",
      "constant": true
    },
    {
      "inputs": [
        {
          "internalType": "uint256",
          "name": "tokenId",
          "type": "uint256"
        }
      ],
      "name": "ownerOf",
      "outputs": [
        {
          "internalType": "address",
          "name": "",
          "type": "address"
        }
      ],
      "stateMutability": "view",
      "type": "function",
      "constant": true
    },
    {
      "inputs": [],
      "name": "renounceOwnership",
      "outputs": [],
      "stateMutability": "nonpayable",
      "type": "function"
    },
    {
      "inputs": [
        {
          "internalType": "address",
          "name": "from",
          "type": "address"
        },
        {
          "internalType": "address",
          "name": "to",
          "type": "address"
        },
        {
          "internalType": "uint256",
          "name": "tokenId",
          "type": "uint256"
        }
      ],
      "name": "safeTransferFrom",
      "outputs": [],
      "stateMutability": "nonpayable",
      "type": "function"
    },
    {
      "inputs": [
        {
          "internalType": "address",
          "name": "from",
          "type": "address"
        },
        {
          "internalType": "address",
          "name": "to",
          "type": "address"
        },
        {
          "internalType": "uint256",
          "name": "tokenId",
          "type": "uint256"
        },
        {
          "internalType": "bytes",
          "name": "data",
          "type": "bytes"
        }
      ],
      "name": "safeTransferFrom",
      "outputs": [],
      "stateMutability": "nonpayable",
      "type": "function"
    },
    {
      "inputs": [
        {
          "internalType": "address",
          "name": "operator",
          "type": "address"
        },
        {
          "internalType": "bool",
          "name": "approved",
          "type": "bool"
        }
      ],
      "name": "setApprovalForAll",
      "outputs": [],
      "stateMutability": "nonpayable",
      "type": "function"
    },
    {
      "inputs": [
        {
          "internalType": "bytes4",
          "name": "interfaceId",
          "type": "bytes4"
        }
      ],
      "name": "supportsInterface",
      "outputs": [
        {
          "internalType": "bool",
          "name": "",
          "type": "bool"
        }
      ],
      "stateMutability": "view",
      "type": "function",
      "constant": true
    },
    {
      "inputs": [],
      "name": "symbol",
      "outputs": [
        {
          "internalType": "string",
          "name": "",
          "type": "string"
        }
      ],
      "stateMutability": "view",
      "type": "function",
      "constant": true
    },
    {
      "inputs": [
        {
          "internalType": "uint256",
          "name": "tokenId",
          "type": "uint256"
        }
      ],
      "name": "tokenURI",
      "outputs": [
        {
          "internalType": "string",
          "name": "",
          "type": "string"
        }
      ],
      "stateMutability": "view",
      "type": "function",
      "constant": true
    },
    {
      "inputs": [
        {
          "internalType": "address",
          "name": "from",
          "type": "address"
        },
        {
          "internalType": "address",
          "name": "to",
          "type": "address"
        },
        {
          "internalType": "uint256",
          "name": "tokenId",
          "type": "uint256"
        }
      ],
      "name": "transferFrom",
      "outputs": [],
      "stateMutability": "nonpayable",
      "type": "function"
    },
    {
      "inputs": [
        {
          "internalType": "address",
          "name": "newOwner",
          "type": "address"
        }
      ],
      "name": "transferOwnership",
      "outputs": [],
      "stateMutability": "nonpayable",
      "type": "function"
    },
    {
      "inputs": [
        {
          "internalType": "address",
          "name": "to",
          "type": "address"
        },
        {
          "internalType": "string",
          "name": "tokenURI",
          "type": "string"
        }
      ],
      "name": "mintProductNFT",
      "outputs": [],
      "stateMutability": "nonpayable",
      "type": "function"
    },
    {
      "inputs": [
        {
          "internalType": "address",
          "name": "from",
          "type": "address"
        },
        {
          "internalType": "address",
          "name": "to",
          "type": "address"
        },
        {
          "internalType": "uint256",
          "name": "tokenId",
          "type": "uint256"
        }
      ],
      "name": "transferProductNFT",
      "outputs": [],
      "stateMutability": "nonpayable",
      "type": "function"
    },
    {
      "inputs": [
        {
          "internalType": "uint256",
          "name": "tokenId",
          "type": "uint256"
        }
      ],
      "name": "getOwnershipHistory",
      "outputs": [
        {
          "internalType": "address[]",
          "name": "",
          "type": "address[]"
        }
      ],
      "stateMutability": "view",
      "type": "function",
      "constant": true
    }
  ],
  "bytecode": "0x60806040523480156200001157600080fd5b506040518060400160405280600e81526020017f537570706c79436861696e4e46540000000000000000000000000000000000008152506040518060400160405280600581526020017f53434e465400000000000000000000000000000000000000000000000000000081525081600090816200008f919062000200565b5060016200009e828262000200565b505050620000cd620000be620000d3640100000000026401000000009004565b640100000000620000d7810204565b620002d3565b3390565b60078054600160a060020a03838116600160a060020a0319831681179093556040519116919082907f8be0079c531659141344cd1fd0a4f28419497f9722a3daafe3b4186f6b6457e090600090a35050565b7f4e487b7100000000000000000000000000000000000000000000000000000000600052604160045260246000fd5b6002810460018216806200016d57607f821691505b602082108103620001a7577f4e487b7100000000000000000000000000000000000000000000000000000000600052602260045260246000fd5b50919050565b601f821115620001fb576000818152602081206020601f86010481016020861015620001d65750805b6020601f860104820191505b81811015620001f757828155600101620001e2565b5050505b505050565b815167ffffffffffffffff8111156200021d576200021d62000129565b62000235816200022e845462000158565b84620001ad565b602080601f831160018114620002715760008415620002545750858301515b60028086026008870290910a6000190419821617865550620001f7565b600085815260208120601f198616915b82811015620002a25788860151825594840194600190910190840162000281565b5085821015620002c357878501516008601f88160260020a60001904191681555b5050505050600202600101905550565b611c2a80620002e36000396000f3fe608060405234801561001057600080fd5b5060043610610149576000357c010000000000000000000000000000000000000000000000000000000090048063775cb510116100ca578063b88d4fde1161008e578063b88d4fde14610288578063c87b56dd1461029b578063e985e9c5146102ae578063f1dbaccb146102ea578063f2fde38b1461030a57600080fd5b8063775cb510146102365780638da5cb5b1461024957806395d89b411461025a57806397f1491a14610262578063a22cb4651461027557600080fd5b806342842e0e1161011157806342842e0e146101de5780636352211e146101f157806370a0823114610204578063715018a61461022557806375794a3c1461022d57600080fd5b806301ffc9a71461014e57806306fdde0314610176578063081812fc1461018b578063095ea7b3146101b657806323b872dd146101cb575b600080fd5b61016161015c366004611539565b61031d565b60405190151581526020015b60405180910390f35b61017e6103ba565b60405161016d91906115a6565b61019e6101993660046115b9565b61044c565b604051600160a060020a03909116815260200161016d565b6101c96101c43660046115ee565b610473565b005b6101c96101d9366004611618565b6105af565b6101c96101ec366004611618565b6105e3565b61019e6101ff3660046115b9565b6105fe565b610217610212366004611654565b610666565b60405190815260200161016d565b6101c9610703565b61021760085481565b6101c9610244366004611714565b610717565b600754600160a060020a031661019e565b61017e610793565b6101c9610270366004611618565b6107a2565b6101c9610283366004611776565b610852565b6101c96102963660046117b2565b610861565b61017e6102a93660046115b9565b61089c565b6101616102bc36600461182e565b600160a060020a03918216600090815260056020908152604080832093909416825291909152205460ff1690565b6102fd6102f83660046115b9565b6109ac565b60405161016d9190611861565b6101c9610318366004611654565b610a18565b6000600160e060020a031982167f80ac58cd0000000000000000000000000000000000000000000000000000000014806103805750600160e060020a031982167f5b5e139f00000000000000000000000000000000000000000000000000000000145b806103b457507f01ffc9a700000000000000000000000000000000000000000000000000000000600160e060020a03198316145b92915050565b6060600080546103c9906118ae565b80601f01602080910402602001604051908101604052809291908181526020018280546103f5906118ae565b80156104425780601f1061041757610100808354040283529160200191610442565b820191906000526020600020905b81548152906001019060200180831161042557829003601f168201915b5050505050905090565b600061045782610aab565b50600090815260046020526040902054600160a060020a031690565b600061047e826105fe565b905080600160a060020a031683600160a060020a03160361050f5760405160e560020a62461bcd02815260206004820152602160248201527f4552433732313a20617070726f76616c20746f2063757272656e74206f776e6560448201527f720000000000000000000000000000000000000000000000000000000000000060648201526084015b60405180910390fd5b33600160a060020a038216148061052b575061052b81336102bc565b6105a05760405160e560020a62461bcd02815260206004820152603d60248201527f4552433732313a20617070726f76652063616c6c6572206973206e6f7420746f60448201527f6b656e206f776e6572206f7220617070726f76656420666f7220616c6c0000006064820152608401610506565b6105aa8383610b12565b505050565b6105b93382610b8d565b6105d85760405160e560020a62461bcd02815260040161050690611901565b6105aa838383610c0b565b6105aa83838360405180602001604052806000815250610861565b600081815260026020526040812054600160a060020a0316806103b45760405160e560020a62461bcd02815260206004820152601860248201527f4552433732313a20696e76616c696420746f6b656e20494400000000000000006044820152606401610506565b6000600160a060020a0382166106e75760405160e560020a62461bcd02815260206004820152602960248201527f4552433732313a2061646472657373207a65726f206973206e6f74206120766160448201527f6c6964206f776e657200000000000000000000000000000000000000000000006064820152608401610506565b50600160a060020a031660009081526003602052604090205490565b61070b610d9e565b6107156000610dfb565b565b61071f610d9e565b60085461072c8382610e5a565b6107368183610e74565b60008181526009602090815260408220805460018101825590835290822001805473ffffffffffffffffffffffffffffffffffffffff1916600160a060020a03861617905560088054916107898361195e565b9190505550505050565b6060600180546103c9906118ae565b6107ac3382610b8d565b6107fb5760405160e560020a62461bcd02815260206004820152601a60248201527f4e6f7420617574686f72697a656420746f207472616e736665720000000000006044820152606401610506565b610806838383610c0b565b600090815260096020908152604082208054600181018255908352912001805473ffffffffffffffffffffffffffffffffffffffff1916600160a060020a039290921691909117905550565b61085d338383610f19565b5050565b61086b3383610b8d565b61088a5760405160e560020a62461bcd02815260040161050690611901565b61089684848484610fea565b50505050565b60606108a782610aab565b600082815260066020526040812080546108c0906118ae565b80601f01602080910402602001604051908101604052809291908181526020018280546108ec906118ae565b80156109395780601f1061090e57610100808354040283529160200191610939565b820191906000526020600020905b81548152906001019060200180831161091c57829003601f168201915b50505050509050600061095760408051602081019091526000815290565b90508051600003610969575092915050565b81511561099b57808260405160200161098392919061199e565b60405160208183030381529060405292505050919050565b6109a484611020565b949350505050565b600081815260096020908152604091829020805483518184028101840190945280845260609392830182828015610a0c57602002820191906000526020600020905b8154600160a060020a031681526001909101906020018083116109ee575b50505050509050919050565b610a20610d9e565b600160a060020a038116610a9f5760405160e560020a62461bcd02815260206004820152602660248201527f4f776e61626c653a206e6577206f776e657220697320746865207a65726f206160448201527f64647265737300000000000000000000000000000000000000000000000000006064820152608401610506565b610aa881610dfb565b50565b600081815260026020526040902054600160a060020a0316610aa85760405160e560020a62461bcd02815260206004820152601860248201527f4552433732313a20696e76616c696420746f6b656e20494400000000000000006044820152606401610506565b6000818152600460205260409020805473ffffffffffffffffffffffffffffffffffffffff1916600160a060020a0384169081179091558190610b54826105fe565b600160a060020a03167f8c5be1e5ebec7d5bd14f71427d1e84f3dd0314c0f7b2291e5b200ac8c7c3b92560405160405180910390a45050565b600080610b99836105fe565b905080600160a060020a031684600160a060020a03161480610be05750600160a060020a0380821660009081526005602090815260408083209388168352929052205460ff165b806109a4575083600160a060020a0316610bf98461044c565b600160a060020a031614949350505050565b82600160a060020a0316610c1e826105fe565b600160a060020a031614610c475760405160e560020a62461bcd028152600401610506906119cd565b600160a060020a038216610cc55760405160e560020a62461bcd028152602060048201526024808201527f4552433732313a207472616e7366657220746f20746865207a65726f2061646460448201527f72657373000000000000000000000000000000000000000000000000000000006064820152608401610506565b82600160a060020a0316610cd8826105fe565b600160a060020a031614610d015760405160e560020a62461bcd028152600401610506906119cd565b6000818152600460209081526040808320805473ffffffffffffffffffffffffffffffffffffffff19908116909155600160a060020a0387811680865260038552838620805460001901905590871680865283862080546001019055868652600290945282852080549092168417909155905184937fddf252ad1be2c89b69c2b068fc378daa952ba7f163c4a11628f55a4df523b3ef91a4505050565b600754600160a060020a031633146107155760405160e560020a62461bcd02815260206004820181905260248201527f4f776e61626c653a2063616c6c6572206973206e6f7420746865206f776e65726044820152606401610506565b60078054600160a060020a0383811673ffffffffffffffffffffffffffffffffffffffff19831681179093556040519116919082907f8be0079c531659141344cd1fd0a4f28419497f9722a3daafe3b4186f6b6457e090600090a35050565b61085d828260405180602001604052806000815250611094565b600082815260026020526040902054600160a060020a0316610f015760405160e560020a62461bcd02815260206004820152602e60248201527f45524337323155524953746f726167653a2055524920736574206f66206e6f6e60448201527f6578697374656e7420746f6b656e0000000000000000000000000000000000006064820152608401610506565b60008281526006602052604090206105aa8282611a78565b81600160a060020a031683600160a060020a031603610f7d5760405160e560020a62461bcd02815260206004820152601960248201527f4552433732313a20617070726f766520746f2063616c6c6572000000000000006044820152606401610506565b600160a060020a03838116600081815260056020908152604080832094871680845294825291829020805460ff191686151590811790915591519182527f17307eab39ab6107e8899845ad3d59bd9653f200f220920489ca2b5937696c31910160405180910390a3505050565b610ff5848484610c0b565b611001848484846110ca565b6108965760405160e560020a62461bcd02815260040161050690611b3e565b606061102b82610aab565b600061104260408051602081019091526000815290565b90506000815111611062576040518060200160405280600081525061108d565b8061106c84611200565b60405160200161107d92919061199e565b6040516020818303038152906040525b9392505050565b61109e83836112a0565b6110ab60008484846110ca565b6105aa5760405160e560020a62461bcd02815260040161050690611b3e565b6000600160a060020a0384163b156111f5576040517f150b7a02000000000000000000000000000000000000000000000000000000008152600160a060020a0385169063150b7a0290611127903390899088908890600401611b9b565b6020604051808303816000875af1925050508015611162575060408051601f3d908101601f1916820190925261115f91810190611bd7565b60015b6111c2573d808015611190576040519150601f19603f3d011682016040523d82523d6000602084013e611195565b606091505b5080516000036111ba5760405160e560020a62461bcd02815260040161050690611b3e565b805181602001fd5b600160e060020a0319167f150b7a02000000000000000000000000000000000000000000000000000000001490506109a4565b506001949350505050565b6060600061120d83611441565b600101905060008167ffffffffffffffff81111561122d5761122d61166f565b6040519080825280601f01601f191660200182016040528015611257576020820181803683370190505b5090508181016020015b600019017f3031323334353637383961626364656600000000000000000000000000000000600a86061a8153600a850494508461126157509392505050565b600160a060020a0382166112f95760405160e560020a62461bcd02815260206004820181905260248201527f4552433732313a206d696e7420746f20746865207a65726f20616464726573736044820152606401610506565b600081815260026020526040902054600160a060020a0316156113615760405160e560020a62461bcd02815260206004820152601c60248201527f4552433732313a20746f6b656e20616c7265616479206d696e746564000000006044820152606401610506565b600081815260026020526040902054600160a060020a0316156113c95760405160e560020a62461bcd02815260206004820152601c60248201527f4552433732313a20746f6b656e20616c7265616479206d696e746564000000006044820152606401610506565b600160a060020a0382166000818152600360209081526040808320805460010190558483526002909152808220805473ffffffffffffffffffffffffffffffffffffffff19168417905551839291907fddf252ad1be2c89b69c2b068fc378daa952ba7f163c4a11628f55a4df523b3ef908290a45050565b6000807a184f03e93ff9f4daa797ed6e38ed64bf6a1f010000000000000000831061148a577a184f03e93ff9f4daa797ed6e38ed64bf6a1f010000000000000000830492506040015b6d04ee2d6d415b85acef810000000083106114b6576d04ee2d6d415b85acef8100000000830492506020015b662386f26fc1000083106114d457662386f26fc10000830492506010015b6305f5e10083106114ec576305f5e100830492506008015b612710831061150057612710830492506004015b60648310611512576064830492506002015b600a83106103b45760010192915050565b600160e060020a031981168114610aa857600080fd5b60006020828403121561154b57600080fd5b813561108d81611523565b60005b83811015611571578181015183820152602001611559565b50506000910152565b60008151808452611592816020860160208601611556565b601f01601f19169290920160200192915050565b60208152600061108d602083018461157a565b6000602082840312156115cb57600080fd5b5035919050565b8035600160a060020a03811681146115e957600080fd5b919050565b6000806040838503121561160157600080fd5b61160a836115d2565b946020939093013593505050565b60008060006060848603121561162d57600080fd5b611636846115d2565b9250611644602085016115d2565b9150604084013590509250925092565b60006020828403121561166657600080fd5b61108d826115d2565b7f4e487b7100000000000000000000000000000000000000000000000000000000600052604160045260246000fd5b600067ffffffffffffffff808411156116b9576116b961166f565b604051601f8501601f19908116603f011681019082821181831017156116e1576116e161166f565b816040528093508581528686860111156116fa57600080fd5b858560208301376000602087830101525050509392505050565b6000806040838503121561172757600080fd5b611730836115d2565b9150602083013567ffffffffffffffff81111561174c57600080fd5b8301601f8101851361175d57600080fd5b61176c8582356020840161169e565b9150509250929050565b6000806040838503121561178957600080fd5b611792836115d2565b9150602083013580151581146117a757600080fd5b809150509250929050565b600080600080608085870312156117c857600080fd5b6117d1856115d2565b93506117df602086016115d2565b925060408501359150606085013567ffffffffffffffff81111561180257600080fd5b8501601f8101871361181357600080fd5b6118228782356020840161169e565b91505092959194509250565b6000806040838503121561184157600080fd5b61184a836115d2565b9150611858602084016115d2565b90509250929050565b6020808252825182820181905260009190848201906040850190845b818110156118a2578351600160a060020a03168352928401929184019160010161187d565b50909695505050505050565b6002810460018216806118c257607f821691505b6020821081036118fb577f4e487b7100000000000000000000000000000000000000000000000000000000600052602260045260246000fd5b50919050565b6020808252602d908201527f4552433732313a2063616c6c6572206973206e6f7420746f6b656e206f776e6560408201527f72206f7220617070726f76656400000000000000000000000000000000000000606082015260800190565b600060018201611997577f4e487b7100000000000000000000000000000000000000000000000000000000600052601160045260246000fd5b5060010190565b600083516119b0818460208801611556565b8351908301906119c4818360208801611556565b01949350505050565b60208082526025908201527f4552433732313a207472616e736665722066726f6d20696e636f72726563742060408201527f6f776e6572000000000000000000000000000000000000000000000000000000606082015260800190565b601f8211156105aa576000818152602081206020601f86010481016020861015611a515750805b6020601f860104820191505b81811015611a7057828155600101611a5d565b505050505050565b815167ffffffffffffffff811115611a9257611a9261166f565b611aa681611aa084546118ae565b84611a2a565b602080601f831160018114611adf5760008415611ac35750858301515b60028086026008870290910a6000190419821617865550611a70565b600085815260208120601f198616915b82811015611b0e57888601518255948401946001909101908401611aef565b5085821015611b2e57878501516008601f88160260020a60001904191681555b5050505050600202600101905550565b60208082526032908201527f4552433732313a207472616e7366657220746f206e6f6e20455243373231526560408201527f63656976657220696d706c656d656e7465720000000000000000000000000000606082015260800190565b6000600160a060020a03808716835280861660208401525083604083015260806060830152611bcd608083018461157a565b9695505050505050565b600060208284031215611be957600080fd5b815161108d8161152356fea264697066735822122098b9b33d14a930cb65e2ad0ac773ced6f27660222c702f15d37059c043a4bbe764736f6c63430008130033",
  "immutableReferences": {},
  "source": "// SPDX-License-Identifier: MIT\npragma solidity ^0.8.19;\n\nimport \"@openzeppelin/contracts/token/ERC721/extensions/ERC721URIStorage.sol\";\nimport \"@openzeppelin/contracts/access/Ownable.sol\";\n\ncontract SupplyChainNFT is ERC721URIStorage, Ownable {\n    uint256 public nextTokenId;\n\n    // Mappa: tokenId => lista di indirizzi che hanno posseduto il prodotto\n    mapping(uint256 => address[]) private ownershipHistory;\n\n    constructor() ERC721(\"SupplyChainNFT\", \"SCNFT\") {}\n\n    function mintProductNFT(address to, string memory tokenURI) public onlyOwner {\n        uint256 tokenId = nextTokenId;\n        _safeMint(to, tokenId);\n        _setTokenURI(tokenId, tokenURI);\n\n        // Inizializza lo storico con il primo proprietario\n        ownershipHistory[tokenId].push(to);\n\n        nextTokenId++;\n    }\n\n    function transferProductNFT(address from, address to, uint256 tokenId) public {\n        require(_isApprovedOrOwner(msg.sender, tokenId), \"Not authorized to transfer\");\n\n        _transfer(from, to, tokenId);\n\n        // Aggiorna lo storico dei passaggi\n        ownershipHistory[tokenId].push(to);\n    }\n\n    // Funzione per ottenere la lista dei proprietari storici\n    function getOwnershipHistory(uint256 tokenId) public view returns (address[] memory) {\n        return ownershipHistory[tokenId];\n    }\n}",
  "sourcePath": "/Users/dani_d17/Documents/Software Security and Blockchain/Software-Food-Supply-Chain/onChain/contracts/SupplyChainNFT.sol",
  "compiler": {
    "name": "solc",
    "version": "0.8.19+commit.7dd6d404.Emscripten.clang"
  },
  "schemaVersion": "3.4.16",
  "updatedAt": "2025-05-09T13:24:48.048Z",
  "networkType": "ethereum",
  "devdoc": {
    "events": {
      "Approval(address,address,uint256)": {
        "details": "Emitted when `owner` enables `approved` to manage the `tokenId` token."
      },
      "ApprovalForAll(address,address,bool)": {
        "details": "Emitted when `owner` enables or disables (`approved`) `operator` to manage all of its assets."
      },
      "Transfer(address,address,uint256)": {
        "details": "Emitted when `tokenId` token is transferred from `from` to `to`."
      }
    },
    "kind": "dev",
    "methods": {
      "approve(address,uint256)": {
        "details": "See {IERC721-approve}."
      },
      "balanceOf(address)": {
        "details": "See {IERC721-balanceOf}."
      },
      "getApproved(uint256)": {
        "details": "See {IERC721-getApproved}."
      },
      "isApprovedForAll(address,address)": {
        "details": "See {IERC721-isApprovedForAll}."
      },
      "name()": {
        "details": "See {IERC721Metadata-name}."
      },
      "owner()": {
        "details": "Returns the address of the current owner."
      },
      "ownerOf(uint256)": {
        "details": "See {IERC721-ownerOf}."
      },
      "renounceOwnership()": {
        "details": "Leaves the contract without owner. It will not be possible to call `onlyOwner` functions anymore. Can only be called by the current owner. NOTE: Renouncing ownership will leave the contract without an owner, thereby removing any functionality that is only available to the owner."
      },
      "safeTransferFrom(address,address,uint256)": {
        "details": "See {IERC721-safeTransferFrom}."
      },
      "safeTransferFrom(address,address,uint256,bytes)": {
        "details": "See {IERC721-safeTransferFrom}."
      },
      "setApprovalForAll(address,bool)": {
        "details": "See {IERC721-setApprovalForAll}."
      },
      "supportsInterface(bytes4)": {
        "details": "See {IERC165-supportsInterface}."
      },
      "symbol()": {
        "details": "See {IERC721Metadata-symbol}."
      },
      "tokenURI(uint256)": {
        "details": "See {IERC721Metadata-tokenURI}."
      },
      "transferFrom(address,address,uint256)": {
        "details": "See {IERC721-transferFrom}."
      },
      "transferOwnership(address)": {
        "details": "Transfers ownership of the contract to a new account (`newOwner`). Can only be called by the current owner."
      }
    },
    "version": 1
  },
  "userdoc": {
    "kind": "user",
    "methods": {},
    "version": 1
  }
}